{
  "_format": "hh-sol-artifact-1",
  "contractName": "MessengeReceiver",
  "sourceName": "contracts/MessageReceiver.sol",
  "abi": [
    {
      "inputs": [
        {
          "internalType": "address",
          "name": "_trustedRelayer",
          "type": "address"
        }
      ],
      "stateMutability": "nonpayable",
      "type": "constructor"
    },
    {
      "anonymous": false,
      "inputs": [
        {
          "indexed": true,
          "internalType": "bytes32",
          "name": "messageId",
          "type": "bytes32"
        },
        {
          "indexed": true,
          "internalType": "address",
          "name": "sender",
          "type": "address"
        },
        {
          "indexed": false,
          "internalType": "bytes",
          "name": "message",
          "type": "bytes"
        },
        {
          "indexed": false,
          "internalType": "uint256",
          "name": "timestamp",
          "type": "uint256"
        }
      ],
      "name": "MessageReceived",
      "type": "event"
    },
    {
      "inputs": [
        {
          "internalType": "bytes32",
          "name": "",
          "type": "bytes32"
        }
      ],
      "name": "processedMessages",
      "outputs": [
        {
          "internalType": "bool",
          "name": "",
          "type": "bool"
        }
      ],
      "stateMutability": "view",
      "type": "function"
    },
    {
      "inputs": [
        {
          "internalType": "bytes32",
          "name": "messageId",
          "type": "bytes32"
        },
        {
          "internalType": "address",
          "name": "sender",
          "type": "address"
        },
        {
          "internalType": "uint256",
          "name": "timestamp",
          "type": "uint256"
        }
      ],
      "name": "receiveMessage",
      "outputs": [],
      "stateMutability": "nonpayable",
      "type": "function"
    },
    {
      "inputs": [],
      "name": "trustedRelayer",
      "outputs": [
        {
          "internalType": "address",
          "name": "",
          "type": "address"
        }
      ],
      "stateMutability": "view",
      "type": "function"
    }
  ],
  "bytecode": "0x608060405234801561001057600080fd5b50604051610655380380610655833981810160405281019061003291906100dc565b80600160006101000a81548173ffffffffffffffffffffffffffffffffffffffff021916908373ffffffffffffffffffffffffffffffffffffffff16021790555050610109565b600080fd5b600073ffffffffffffffffffffffffffffffffffffffff82169050919050565b60006100a98261007e565b9050919050565b6100b98161009e565b81146100c457600080fd5b50565b6000815190506100d6816100b0565b92915050565b6000602082840312156100f2576100f1610079565b5b6000610100848285016100c7565b91505092915050565b61053d806101186000396000f3fe608060405234801561001057600080fd5b50600436106100415760003560e01c8063083bf006146100465780638596c2261461006257806388ba16ab14610080575b600080fd5b610060600480360381019061005b91906102db565b6100b0565b005b61006a6101c6565b604051610077919061033d565b60405180910390f35b61009a60048036038101906100959190610358565b6101ec565b6040516100a791906103a0565b60405180910390f35b60008084815260200190815260200160002060009054906101000a900460ff1615610110576040517f08c379a000000000000000000000000000000000000000000000000000000000815260040161010790610418565b60405180910390fd5b600160008085815260200190815260200160002060006101000a81548160ff0219169083151502179055508173ffffffffffffffffffffffffffffffffffffffff16837ffbe5334ea625e76d101c05d3a8561b00ba7037610c6e918747d242d688c25a8d6040518060400160405280600381526020017f41434b0000000000000000000000000000000000000000000000000000000000815250846040516101b99291906104d7565b60405180910390a3505050565b600160009054906101000a900473ffffffffffffffffffffffffffffffffffffffff1681565b60006020528060005260406000206000915054906101000a900460ff1681565b600080fd5b6000819050919050565b61022481610211565b811461022f57600080fd5b50565b6000813590506102418161021b565b92915050565b600073ffffffffffffffffffffffffffffffffffffffff82169050919050565b600061027282610247565b9050919050565b61028281610267565b811461028d57600080fd5b50565b60008135905061029f81610279565b92915050565b6000819050919050565b6102b8816102a5565b81146102c357600080fd5b50565b6000813590506102d5816102af565b92915050565b6000806000606084860312156102f4576102f361020c565b5b600061030286828701610232565b935050602061031386828701610290565b9250506040610324868287016102c6565b9150509250925092565b61033781610267565b82525050565b6000602082019050610352600083018461032e565b92915050565b60006020828403121561036e5761036d61020c565b5b600061037c84828501610232565b91505092915050565b60008115159050919050565b61039a81610385565b82525050565b60006020820190506103b56000830184610391565b92915050565b600082825260208201905092915050565b7f6d6573736167652d616c72656164792d70726f63657373656400000000000000600082015250565b60006104026019836103bb565b915061040d826103cc565b602082019050919050565b60006020820190508181036000830152610431816103f5565b9050919050565b600081519050919050565b600082825260208201905092915050565b60005b83811015610472578082015181840152602081019050610457565b60008484015250505050565b6000601f19601f8301169050919050565b600061049a82610438565b6104a48185610443565b93506104b4818560208601610454565b6104bd8161047e565b840191505092915050565b6104d1816102a5565b82525050565b600060408201905081810360008301526104f1818561048f565b905061050060208301846104c8565b939250505056fea26469706673582212205ca6c6ac39d707a4eb727760563eccc19adbd0cdaffd7aab989e9aaff82619aa64736f6c634300081c0033",
  "linkReferences": {},
  "deployedLinkReferences": {}
}