{
  "_format": "hh-sol-artifact-1",
  "contractName": "MessengeSender",
  "sourceName": "contracts/MessengeSender.sol",
  "abi": [
    {
      "inputs": [
        {
          "internalType": "address",
          "name": "_trustedRelayer",
          "type": "address"
        }
      ],
      "stateMutability": "nonpayable",
      "type": "constructor"
    },
    {
      "anonymous": false,
      "inputs": [
        {
          "indexed": true,
          "internalType": "bytes32",
          "name": "messageId",
          "type": "bytes32"
        },
        {
          "indexed": true,
          "internalType": "address",
          "name": "sender",
          "type": "address"
        },
        {
          "indexed": false,
          "internalType": "bytes",
          "name": "message",
          "type": "bytes"
        },
        {
          "indexed": false,
          "internalType": "uint256",
          "name": "timestamp",
          "type": "uint256"
        }
      ],
      "name": "MessageAcknowledged",
      "type": "event"
    },
    {
      "anonymous": false,
      "inputs": [
        {
          "indexed": true,
          "internalType": "bytes32",
          "name": "messageId",
          "type": "bytes32"
        },
        {
          "indexed": true,
          "internalType": "address",
          "name": "sender",
          "type": "address"
        },
        {
          "indexed": false,
          "internalType": "bytes",
          "name": "message",
          "type": "bytes"
        },
        {
          "indexed": false,
          "internalType": "uint256",
          "name": "timestamp",
          "type": "uint256"
        }
      ],
      "name": "MessageReceived",
      "type": "event"
    },
    {
      "anonymous": false,
      "inputs": [
        {
          "indexed": true,
          "internalType": "bytes32",
          "name": "messageId",
          "type": "bytes32"
        },
        {
          "indexed": true,
          "internalType": "address",
          "name": "sender",
          "type": "address"
        },
        {
          "indexed": false,
          "internalType": "bytes",
          "name": "message",
          "type": "bytes"
        },
        {
          "indexed": false,
          "internalType": "uint256",
          "name": "timestamp",
          "type": "uint256"
        },
        {
          "indexed": false,
          "internalType": "bytes",
          "name": "signature",
          "type": "bytes"
        }
      ],
      "name": "MessageSent",
      "type": "event"
    },
    {
      "inputs": [
        {
          "internalType": "bytes32",
          "name": "messageId",
          "type": "bytes32"
        }
      ],
      "name": "ackMessage",
      "outputs": [],
      "stateMutability": "nonpayable",
      "type": "function"
    },
    {
      "inputs": [
        {
          "internalType": "bytes32",
          "name": "",
          "type": "bytes32"
        }
      ],
      "name": "messages",
      "outputs": [
        {
          "internalType": "bytes32",
          "name": "messageId",
          "type": "bytes32"
        },
        {
          "internalType": "address",
          "name": "sender",
          "type": "address"
        },
        {
          "internalType": "bytes",
          "name": "message",
          "type": "bytes"
        },
        {
          "internalType": "uint256",
          "name": "timestamp",
          "type": "uint256"
        },
        {
          "internalType": "bytes",
          "name": "signature",
          "type": "bytes"
        },
        {
          "internalType": "bool",
          "name": "processed",
          "type": "bool"
        }
      ],
      "stateMutability": "view",
      "type": "function"
    },
    {
      "inputs": [
        {
          "internalType": "string",
          "name": "_message",
          "type": "string"
        }
      ],
      "name": "sendMessage",
      "outputs": [],
      "stateMutability": "nonpayable",
      "type": "function"
    },
    {
      "inputs": [],
      "name": "trustedRelayer",
      "outputs": [
        {
          "internalType": "address",
          "name": "",
          "type": "address"
        }
      ],
      "stateMutability": "view",
      "type": "function"
    }
  ],
  "bytecode": "0x608060405234801561001057600080fd5b50604051610f7a380380610f7a833981810160405281019061003291906100db565b806000806101000a81548173ffffffffffffffffffffffffffffffffffffffff021916908373ffffffffffffffffffffffffffffffffffffffff16021790555050610108565b600080fd5b600073ffffffffffffffffffffffffffffffffffffffff82169050919050565b60006100a88261007d565b9050919050565b6100b88161009d565b81146100c357600080fd5b50565b6000815190506100d5816100af565b92915050565b6000602082840312156100f1576100f0610078565b5b60006100ff848285016100c6565b91505092915050565b610e63806101176000396000f3fe608060405234801561001057600080fd5b506004361061004c5760003560e01c80631627e9ad146100515780632bbd59ca1461006d578063469c8110146100a25780638596c226146100be575b600080fd5b61006b600480360381019061006691906105ae565b6100dc565b005b610087600480360381019061008291906105ae565b6101fe565b604051610099969594939291906106ef565b60405180910390f35b6100bc60048036038101906100b79190610893565b610377565b005b6100c6610529565b6040516100d391906108dc565b60405180910390f35b600015156002600083815260200190815260200160002060050160009054906101000a900460ff16151514610146576040517f08c379a000000000000000000000000000000000000000000000000000000000815260040161013d90610954565b60405180910390fd5b60016002600083815260200190815260200160002060050160006101000a81548160ff0219169083151502179055503373ffffffffffffffffffffffffffffffffffffffff16817f2508702f8b6b3e10c8d41ff98efac9fd12a93fd677fa822396e0ad1007a8c40d6040518060400160405280600781526020017f53594e2d41434b00000000000000000000000000000000000000000000000000815250426040516101f3929190610974565b60405180910390a350565b60026020528060005260406000206000915090508060000154908060010160009054906101000a900473ffffffffffffffffffffffffffffffffffffffff169080600201805461024d906109d3565b80601f0160208091040260200160405190810160405280929190818152602001828054610279906109d3565b80156102c65780601f1061029b576101008083540402835291602001916102c6565b820191906000526020600020905b8154815290600101906020018083116102a957829003601f168201915b5050505050908060030154908060040180546102e1906109d3565b80601f016020809104026020016040519081016040528092919081815260200182805461030d906109d3565b801561035a5780601f1061032f5761010080835404028352916020019161035a565b820191906000526020600020905b81548152906001019060200180831161033d57829003601f168201915b5050505050908060050160009054906101000a900460ff16905086565b60003382426001546040516020016103929493929190610aa9565b60405160208183030381529060405280519060200120905060006103b461054d565b90506040518060c001604052808381526020013373ffffffffffffffffffffffffffffffffffffffff16815260200184815260200142815260200182815260200160001515815250600260008481526020019081526020016000206000820151816000015560208201518160010160006101000a81548173ffffffffffffffffffffffffffffffffffffffff021916908373ffffffffffffffffffffffffffffffffffffffff16021790555060408201518160020190816104759190610c9f565b506060820151816003015560808201518160040190816104959190610c9f565b5060a08201518160050160006101000a81548160ff0219169083151502179055509050503373ffffffffffffffffffffffffffffffffffffffff16827f4bac9e82130c606f1d88edf9a3046ffd43931f3ef54e0e1feaabbd669757b98f85428560405161050493929190610d71565b60405180910390a36001600081548092919061051f90610de5565b9190505550505050565b60008054906101000a900473ffffffffffffffffffffffffffffffffffffffff1681565b606060405180602001604052806000815250905090565b6000604051905090565b600080fd5b600080fd5b6000819050919050565b61058b81610578565b811461059657600080fd5b50565b6000813590506105a881610582565b92915050565b6000602082840312156105c4576105c361056e565b5b60006105d284828501610599565b91505092915050565b6105e481610578565b82525050565b600073ffffffffffffffffffffffffffffffffffffffff82169050919050565b6000610615826105ea565b9050919050565b6106258161060a565b82525050565b600081519050919050565b600082825260208201905092915050565b60005b8381101561066557808201518184015260208101905061064a565b60008484015250505050565b6000601f19601f8301169050919050565b600061068d8261062b565b6106978185610636565b93506106a7818560208601610647565b6106b081610671565b840191505092915050565b6000819050919050565b6106ce816106bb565b82525050565b60008115159050919050565b6106e9816106d4565b82525050565b600060c08201905061070460008301896105db565b610711602083018861061c565b81810360408301526107238187610682565b905061073260608301866106c5565b81810360808301526107448185610682565b905061075360a08301846106e0565b979650505050505050565b600080fd5b600080fd5b7f4e487b7100000000000000000000000000000000000000000000000000000000600052604160045260246000fd5b6107a082610671565b810181811067ffffffffffffffff821117156107bf576107be610768565b5b80604052505050565b60006107d2610564565b90506107de8282610797565b919050565b600067ffffffffffffffff8211156107fe576107fd610768565b5b61080782610671565b9050602081019050919050565b82818337600083830152505050565b6000610836610831846107e3565b6107c8565b90508281526020810184848401111561085257610851610763565b5b61085d848285610814565b509392505050565b600082601f83011261087a5761087961075e565b5b813561088a848260208601610823565b91505092915050565b6000602082840312156108a9576108a861056e565b5b600082013567ffffffffffffffff8111156108c7576108c6610573565b5b6108d384828501610865565b91505092915050565b60006020820190506108f1600083018461061c565b92915050565b600082825260208201905092915050565b7f6d6573736167652d69642d616c72656164792d70726f63657373656400000000600082015250565b600061093e601c836108f7565b915061094982610908565b602082019050919050565b6000602082019050818103600083015261096d81610931565b9050919050565b6000604082019050818103600083015261098e8185610682565b905061099d60208301846106c5565b9392505050565b7f4e487b7100000000000000000000000000000000000000000000000000000000600052602260045260246000fd5b600060028204905060018216806109eb57607f821691505b6020821081036109fe576109fd6109a4565b5b50919050565b60008160601b9050919050565b6000610a1c82610a04565b9050919050565b6000610a2e82610a11565b9050919050565b610a46610a418261060a565b610a23565b82525050565b600081905092915050565b6000610a628261062b565b610a6c8185610a4c565b9350610a7c818560208601610647565b80840191505092915050565b6000819050919050565b610aa3610a9e826106bb565b610a88565b82525050565b6000610ab58287610a35565b601482019150610ac58286610a57565b9150610ad18285610a92565b602082019150610ae18284610a92565b60208201915081905095945050505050565b60008190508160005260206000209050919050565b60006020601f8301049050919050565b600082821b905092915050565b600060088302610b557fffffffffffffffffffffffffffffffffffffffffffffffffffffffffffffffff82610b18565b610b5f8683610b18565b95508019841693508086168417925050509392505050565b6000819050919050565b6000610b9c610b97610b92846106bb565b610b77565b6106bb565b9050919050565b6000819050919050565b610bb683610b81565b610bca610bc282610ba3565b848454610b25565b825550505050565b600090565b610bdf610bd2565b610bea818484610bad565b505050565b5b81811015610c0e57610c03600082610bd7565b600181019050610bf0565b5050565b601f821115610c5357610c2481610af3565b610c2d84610b08565b81016020851015610c3c578190505b610c50610c4885610b08565b830182610bef565b50505b505050565b600082821c905092915050565b6000610c7660001984600802610c58565b1980831691505092915050565b6000610c8f8383610c65565b9150826002028217905092915050565b610ca88261062b565b67ffffffffffffffff811115610cc157610cc0610768565b5b610ccb82546109d3565b610cd6828285610c12565b600060209050601f831160018114610d095760008415610cf7578287015190505b610d018582610c83565b865550610d69565b601f198416610d1786610af3565b60005b82811015610d3f57848901518255600182019150602085019450602081019050610d1a565b86831015610d5c5784890151610d58601f891682610c65565b8355505b6001600288020188555050505b505050505050565b60006060820190508181036000830152610d8b8186610682565b9050610d9a60208301856106c5565b8181036040830152610dac8184610682565b9050949350505050565b7f4e487b7100000000000000000000000000000000000000000000000000000000600052601160045260246000fd5b6000610df0826106bb565b91507fffffffffffffffffffffffffffffffffffffffffffffffffffffffffffffffff8203610e2257610e21610db6565b5b60018201905091905056fea2646970667358221220eb1dd99031a70d6189bc1528052b621c6ca8b13c14e642725ca5d30f84ad6f5b64736f6c634300081c0033",
  "linkReferences": {},
  "deployedLinkReferences": {}
}